{
  "contractName": "myGame",
  "abi": [
    {
      "constant": true,
      "inputs": [],
      "name": "playerCount",
      "outputs": [
        {
          "internalType": "uint256",
          "name": "",
          "type": "uint256"
        }
      ],
      "payable": false,
      "stateMutability": "view",
      "type": "function"
    },
    {
      "constant": true,
      "inputs": [
        {
          "internalType": "address",
          "name": "",
          "type": "address"
        }
      ],
      "name": "players",
      "outputs": [
        {
          "internalType": "address",
          "name": "playerAddress",
          "type": "address"
        },
        {
          "internalType": "enum myGame.Level",
          "name": "playerLevel",
          "type": "uint8"
        },
        {
          "internalType": "string",
          "name": "firstname",
          "type": "string"
        },
        {
          "internalType": "string",
          "name": "lastname",
          "type": "string"
        },
        {
          "internalType": "uint256",
          "name": "created",
          "type": "uint256"
        }
      ],
      "payable": false,
      "stateMutability": "view",
      "type": "function"
    },
    {
      "constant": false,
      "inputs": [
        {
          "internalType": "string",
          "name": "firstname",
          "type": "string"
        },
        {
          "internalType": "string",
          "name": "lastname",
          "type": "string"
        }
      ],
      "name": "addPlayer",
      "outputs": [],
      "payable": false,
      "stateMutability": "nonpayable",
      "type": "function"
    },
    {
      "constant": true,
      "inputs": [
        {
          "internalType": "address",
          "name": "playerAddress",
          "type": "address"
        }
      ],
      "name": "getPlayerLevel",
      "outputs": [
        {
          "internalType": "enum myGame.Level",
          "name": "",
          "type": "uint8"
        }
      ],
      "payable": false,
      "stateMutability": "view",
      "type": "function"
    },
    {
      "constant": false,
      "inputs": [
        {
          "internalType": "address",
          "name": "playerAddress",
          "type": "address"
        }
      ],
      "name": "changePlayerLevel",
      "outputs": [],
      "payable": false,
      "stateMutability": "nonpayable",
      "type": "function"
    }
  ],
  "bytecode": "0x60806040526000805534801561001457600080fd5b5061088e806100246000396000f3fe608060405234801561001057600080fd5b50600436106100575760003560e01c8063302bcc571461005c57806334b735a11461007a5780635cb119a9146100e05780638ddf0f7d14610232578063e2eb41ff14610276575b600080fd5b6100646103ee565b6040518082815260200191505060405180910390f35b6100bc6004803603602081101561009057600080fd5b81019080803573ffffffffffffffffffffffffffffffffffffffff1690602001909291905050506103f4565b604051808260028111156100cc57fe5b60ff16815260200191505060405180910390f35b610230600480360360408110156100f657600080fd5b810190808035906020019064010000000081111561011357600080fd5b82018360208201111561012557600080fd5b8035906020019184600183028401116401000000008311171561014757600080fd5b91908080601f016020809104026020016040519081016040528093929190818152602001838380828437600081840152601f19601f820116905080830192505050505050509192919290803590602001906401000000008111156101aa57600080fd5b8201836020820111156101bc57600080fd5b803590602001918460018302840111640100000000831117156101de57600080fd5b91908080601f016020809104026020016040519081016040528093929190818152602001838380828437600081840152601f19601f820116905080830192505050505050509192919290505050610452565b005b6102746004803603602081101561024857600080fd5b81019080803573ffffffffffffffffffffffffffffffffffffffff1690602001909291905050506105a5565b005b6102b86004803603602081101561028c57600080fd5b81019080803573ffffffffffffffffffffffffffffffffffffffff169060200190929190505050610621565b604051808673ffffffffffffffffffffffffffffffffffffffff1673ffffffffffffffffffffffffffffffffffffffff1681526020018560028111156102fa57fe5b60ff1681526020018060200180602001848152602001838103835286818151815260200191508051906020019080838360005b8381101561034857808201518184015260208101905061032d565b50505050905090810190601f1680156103755780820380516001836020036101000a031916815260200191505b50838103825285818151815260200191508051906020019080838360005b838110156103ae578082015181840152602081019050610393565b50505050905090810190601f1680156103db5780820380516001836020036101000a031916815260200191505b5097505050505050505060405180910390f35b60005481565b600080600160008473ffffffffffffffffffffffffffffffffffffffff1673ffffffffffffffffffffffffffffffffffffffff16815260200190815260200160002090508060000160149054906101000a900460ff16915050919050565b6040518060a001604052803373ffffffffffffffffffffffffffffffffffffffff1681526020016000600281111561048657fe5b815260200183815260200182815260200142815250600160003373ffffffffffffffffffffffffffffffffffffffff1673ffffffffffffffffffffffffffffffffffffffff16815260200190815260200160002060008201518160000160006101000a81548173ffffffffffffffffffffffffffffffffffffffff021916908373ffffffffffffffffffffffffffffffffffffffff16021790555060208201518160000160146101000a81548160ff0219169083600281111561054557fe5b021790555060408201518160010190805190602001906105669291906107b4565b5060608201518160020190805190602001906105839291906107b4565b5060808201518160030155905050600160008082825401925050819055505050565b6000600160008373ffffffffffffffffffffffffffffffffffffffff1673ffffffffffffffffffffffffffffffffffffffff16815260200190815260200160002090506014816003015401421061061d5760018160000160146101000a81548160ff0219169083600281111561061757fe5b02179055505b5050565b60016020528060005260406000206000915090508060000160009054906101000a900473ffffffffffffffffffffffffffffffffffffffff16908060000160149054906101000a900460ff1690806001018054600181600116156101000203166002900480601f0160208091040260200160405190810160405280929190818152602001828054600181600116156101000203166002900480156107065780601f106106db57610100808354040283529160200191610706565b820191906000526020600020905b8154815290600101906020018083116106e957829003601f168201915b505050505090806002018054600181600116156101000203166002900480601f0160208091040260200160405190810160405280929190818152602001828054600181600116156101000203166002900480156107a45780601f10610779576101008083540402835291602001916107a4565b820191906000526020600020905b81548152906001019060200180831161078757829003601f168201915b5050505050908060030154905085565b828054600181600116156101000203166002900490600052602060002090601f016020900481019282601f106107f557805160ff1916838001178555610823565b82800160010185558215610823579182015b82811115610822578251825591602001919060010190610807565b5b5090506108309190610834565b5090565b61085691905b8082111561085257600081600090555060010161083a565b5090565b9056fea265627a7a7231582016432067559e909f1140aa6949e27d293b27436aaec03b7de674bd2ae5c3c7c964736f6c63430005100032",
  "source": "pragma solidity >=0.5.0 <0.9.0;\n// SPDX-License-Identifier: MIT\n\ncontract myGame {\n\n\n    uint public playerCount =0;\n    mapping (address => Player) public players;\n\n    enum Level {Novice, Intermediate, Advanced}\n\n    struct Player {\n        address playerAddress;\n        Level playerLevel;\n        string firstname;\n        string lastname;\n        uint created;\n    }\n    function addPlayer(string memory firstname, string memory lastname) public {\n        players[msg.sender] = Player(msg.sender, Level.Novice, firstname, lastname, block.timestamp);\n        playerCount += 1;\n    }\n\n    function getPlayerLevel(address playerAddress) public view returns(Level){\n        Player storage player = players[playerAddress];\n        return player.playerLevel;\n\n    }\n\n    function changePlayerLevel(address playerAddress) public {\n        Player storage player = players[playerAddress];\n        if(block.timestamp >= player.created + 20) {\n            player.playerLevel = Level.Intermediate;\n        }\n    }\n}\n\n",
  "sourcePath": "/Users/thewanderer/code/crypto/contracts/1_Datatypes.sol",
  "compiler": {
    "name": "solc",
    "version": "0.5.16+commit.9c3226ce.Emscripten.clang"
  },
  "schemaVersion": "3.4.3",
  "updatedAt": "2021-08-29T21:26:52.339Z",
  "devdoc": {
    "methods": {}
  },
  "userdoc": {
    "methods": {}
  }
}