{
  "contractName": "TokenTown",
  "abi": [
    {
      "inputs": [],
      "payable": false,
      "stateMutability": "nonpayable",
      "type": "constructor"
    },
    {
      "anonymous": false,
      "inputs": [
        {
          "indexed": false,
          "internalType": "address",
          "name": "from",
          "type": "address"
        },
        {
          "indexed": false,
          "internalType": "address",
          "name": "to",
          "type": "address"
        },
        {
          "indexed": false,
          "internalType": "uint256",
          "name": "amount",
          "type": "uint256"
        }
      ],
      "name": "Sent",
      "type": "event"
    },
    {
      "constant": true,
      "inputs": [
        {
          "internalType": "address",
          "name": "",
          "type": "address"
        }
      ],
      "name": "balances",
      "outputs": [
        {
          "internalType": "uint256",
          "name": "",
          "type": "uint256"
        }
      ],
      "payable": false,
      "stateMutability": "view",
      "type": "function"
    },
    {
      "constant": true,
      "inputs": [],
      "name": "minter",
      "outputs": [
        {
          "internalType": "address",
          "name": "",
          "type": "address"
        }
      ],
      "payable": false,
      "stateMutability": "view",
      "type": "function"
    },
    {
      "constant": false,
      "inputs": [
        {
          "internalType": "address",
          "name": "reciever",
          "type": "address"
        },
        {
          "internalType": "uint256",
          "name": "amount",
          "type": "uint256"
        }
      ],
      "name": "mint",
      "outputs": [],
      "payable": false,
      "stateMutability": "nonpayable",
      "type": "function"
    },
    {
      "constant": false,
      "inputs": [
        {
          "internalType": "address",
          "name": "reciever",
          "type": "address"
        },
        {
          "internalType": "uint256",
          "name": "amount",
          "type": "uint256"
        }
      ],
      "name": "send",
      "outputs": [],
      "payable": false,
      "stateMutability": "nonpayable",
      "type": "function"
    }
  ],
  "bytecode": "0x608060405234801561001057600080fd5b5033600160006101000a81548173ffffffffffffffffffffffffffffffffffffffff021916908373ffffffffffffffffffffffffffffffffffffffff1602179055504260008190555061054a806100686000396000f3fe608060405234801561001057600080fd5b506004361061004c5760003560e01c8063075461721461005157806327e235e31461009b57806340c10f19146100f3578063d0679d3414610141575b600080fd5b61005961018f565b604051808273ffffffffffffffffffffffffffffffffffffffff1673ffffffffffffffffffffffffffffffffffffffff16815260200191505060405180910390f35b6100dd600480360360208110156100b157600080fd5b81019080803573ffffffffffffffffffffffffffffffffffffffff1690602001909291905050506101b5565b6040518082815260200191505060405180910390f35b61013f6004803603604081101561010957600080fd5b81019080803573ffffffffffffffffffffffffffffffffffffffff169060200190929190803590602001909291905050506101cd565b005b61018d6004803603604081101561015757600080fd5b81019080803573ffffffffffffffffffffffffffffffffffffffff169060200190929190803590602001909291905050506102eb565b005b600160009054906101000a900473ffffffffffffffffffffffffffffffffffffffff1681565b60026020528060005260406000206000915090505481565b600160009054906101000a900473ffffffffffffffffffffffffffffffffffffffff1673ffffffffffffffffffffffffffffffffffffffff163373ffffffffffffffffffffffffffffffffffffffff1614610273576040517f08c379a00000000000000000000000000000000000000000000000000000000081526004018080602001828103825260228152602001806104f46022913960400191505060405180910390fd5b80789f4f2726179a224501d762422c946590d91000000000000000811061029957600080fd5b81600260008573ffffffffffffffffffffffffffffffffffffffff1673ffffffffffffffffffffffffffffffffffffffff16815260200190815260200160002060008282540192505081905550505050565b80600260003373ffffffffffffffffffffffffffffffffffffffff1673ffffffffffffffffffffffffffffffffffffffff168152602001908152602001600020548111156103a1576040517f08c379a00000000000000000000000000000000000000000000000000000000081526004018080602001828103825260158152602001807f496e73756666696369656e742062616c616e63652e000000000000000000000081525060200191505060405180910390fd5b62093a80600054014210156103b557600080fd5b81600260003373ffffffffffffffffffffffffffffffffffffffff1673ffffffffffffffffffffffffffffffffffffffff1681526020019081526020016000206000828254039250508190555081600260008573ffffffffffffffffffffffffffffffffffffffff1673ffffffffffffffffffffffffffffffffffffffff168152602001908152602001600020600082825401925050819055507f3990db2d31862302a685e8086b5755072a6e2b5b780af1ee81ece35ee3cd3345338484604051808473ffffffffffffffffffffffffffffffffffffffff1673ffffffffffffffffffffffffffffffffffffffff1681526020018373ffffffffffffffffffffffffffffffffffffffff1673ffffffffffffffffffffffffffffffffffffffff168152602001828152602001935050505060405180910390a150505056fe4f6e6c79206d696e7465722063616e2063616c6c20746869732066756e6374696f6ea265627a7a7231582017cc8e2947c39258520eec52b4aa7cd0c3a95a20873540badf410e0850251d4a64736f6c63430005100032",
  "source": "pragma solidity >=0.5.0 <0.9.0;\n// SPDX-License-Identifier: MIT\n\ncontract TokenTown {\n    uint contractStart;\n    address public minter;\n    mapping (address => uint) public balances;\n\n    event Sent(address from, address to, uint amount);\n    \n    //----------------Modifiers---------------//\n\n    modifier onlyOwner {\n        require(msg.sender == minter, \"Only minter can call this function\");\n        _;\n    }\n\n    modifier isAmountSufficient(uint amount) {\n        require(amount < 1e60);\n        _;\n    }\n\n    modifier isGreaterThan(uint amount) {\n        require(amount <= balances[msg.sender], \"Insufficient balance.\");\n        _;\n    }\n\n\n    //-----------------------***-----------------------//\n\n    //constructor of coin\n    constructor() public {\n        minter = msg.sender;\n        contractStart = block.timestamp;\n    }\n    //mint coins\n    function mint(address reciever, uint amount) public onlyOwner isAmountSufficient(amount) {\n        balances[reciever] += amount;\n    }\n\n    //send coins\n    function send(address reciever, uint amount) public isGreaterThan(amount) {\n        require(block.timestamp >= contractStart + 604800); //one week after mint\n        balances[msg.sender] -= amount;\n        balances[reciever] += amount;\n        emit Sent(msg.sender, reciever, amount);\n    }\n}",
  "sourcePath": "/Users/thewanderer/code/crypto/contracts/1_Token.sol",
  "compiler": {
    "name": "solc",
    "version": "0.5.16+commit.9c3226ce.Emscripten.clang"
  },
  "schemaVersion": "3.4.3",
  "updatedAt": "2021-08-29T21:32:18.737Z",
  "devdoc": {
    "methods": {}
  },
  "userdoc": {
    "methods": {}
  }
}